:020000040800F2
:1000000000040020C5000008450100084101000867
:1000100000000000000000000000000000000000E0
:10002000000000000000000000000000490100087E
:100030000000000000000000470100082502000841
:10004000F5000008F5000008F5000008F5000008BC
:10005000F5000008F5000008F5000008F5000008AC
:1000600000000000F5000008F5000008F500000899
:10007000F5000008F5000008F5000008F50000088C
:10008000F50000080000000000000000F500000876
:1000900000000000F5000008F5000008F500000869
:1000A00000000000F500000800000000F500000856
:1000B0000348854600F032F800480047C3020008B4
:1000C000000400200C4880F308880C480168090EE1
:1000D0000B4A914205D10B480B4901600B480C4972
:1000E00001600C4880470C480047FEE7FEE7FEE74A
:1000F000FEE7FEE7FEE70000000400200400000029
:100100001F00000018100240010000000000014024
:100110000000000029020008B1000008064C01257B
:10012000064E05E0E36807CC2B430C3C984710349F
:10013000B442F7D3FFF7C0FFC8020008D802000896
:1001400000BFFEE770477047704700000CB5002005
:1001500001900090314800680121090408432F49AB
:10016000086000BF2D480068012149040840009044
:100170000198401C01900098002804D10521090332
:1001800001988842EED125480068012149040840C1
:10019000002802D00120009001E00020009000988B
:1001A000012839D111201E4908601C4840681B49AC
:1001B0004860084640684860084640687F21C90397
:1001C00088431649486008464068112109040843DD
:1001D00012494860084600680121090608430F4992
:1001E000086000BF0D48006801214906084000284A
:1001F000F8D00A48406880088000084948600846EE
:100200004068022108430549486000BF0348406830
:100210000C2108400828F9D10CBD00000010024054
:10022000002002407047000010B51B480068012103
:1002300008431949086008464068184908401649AB
:100240004860084600681649084013490860084697
:1002500000680121890488430F4908600846406806
:100260003F21090488430C4948600846C06A0009D8
:100270000001C8620846006BFF21543188430649DB
:1002800008630846406B40084000486300208860CF
:10029000FFF75CFF10BD0000001002400CB8FFF833
:1002A000FFFFF6FE02E008C8121F08C1002AFAD1BB
:1002B00070477047002001E001C1121F002AFBD1E6
:1002C000704700BFFEE70000D802000800000020D1
:0802D00000040000B402000864
:04000005080000B13E
:00000001FF
